{
  "_format": "hh-sol-artifact-1",
  "contractName": "ProductTraceability",
  "sourceName": "contracts/ProductTraceability.sol",
  "abi": [
    {
      "inputs": [],
      "stateMutability": "nonpayable",
      "type": "constructor"
    },
    {
      "anonymous": false,
      "inputs": [
        {
          "indexed": false,
          "internalType": "string",
          "name": "productId",
          "type": "string"
        },
        {
          "indexed": false,
          "internalType": "enum ProductTraceability.Role",
          "name": "role",
          "type": "uint8"
        },
        {
          "indexed": false,
          "internalType": "address",
          "name": "actor",
          "type": "address"
        },
        {
          "indexed": false,
          "internalType": "string",
          "name": "location",
          "type": "string"
        },
        {
          "indexed": false,
          "internalType": "uint256",
          "name": "timestamp",
          "type": "uint256"
        }
      ],
      "name": "HopAdded",
      "type": "event"
    },
    {
      "anonymous": false,
      "inputs": [
        {
          "indexed": true,
          "internalType": "address",
          "name": "previousOwner",
          "type": "address"
        },
        {
          "indexed": true,
          "internalType": "address",
          "name": "newOwner",
          "type": "address"
        }
      ],
      "name": "OwnershipTransferred",
      "type": "event"
    },
    {
      "anonymous": false,
      "inputs": [
        {
          "indexed": false,
          "internalType": "string",
          "name": "productId",
          "type": "string"
        },
        {
          "indexed": false,
          "internalType": "address",
          "name": "completedBy",
          "type": "address"
        },
        {
          "indexed": false,
          "internalType": "uint256",
          "name": "timestamp",
          "type": "uint256"
        }
      ],
      "name": "ProductCompleted",
      "type": "event"
    },
    {
      "anonymous": false,
      "inputs": [
        {
          "indexed": false,
          "internalType": "string",
          "name": "productId",
          "type": "string"
        },
        {
          "indexed": false,
          "internalType": "address",
          "name": "manufacturer",
          "type": "address"
        },
        {
          "indexed": false,
          "internalType": "string",
          "name": "location",
          "type": "string"
        },
        {
          "indexed": false,
          "internalType": "uint256",
          "name": "timestamp",
          "type": "uint256"
        }
      ],
      "name": "ProductCreated",
      "type": "event"
    },
    {
      "inputs": [
        {
          "internalType": "string",
          "name": "productId",
          "type": "string"
        },
        {
          "internalType": "string",
          "name": "retailerLocation",
          "type": "string"
        }
      ],
      "name": "addRetailerHop",
      "outputs": [],
      "stateMutability": "nonpayable",
      "type": "function"
    },
    {
      "inputs": [
        {
          "internalType": "string",
          "name": "productId",
          "type": "string"
        }
      ],
      "name": "completeProduct",
      "outputs": [],
      "stateMutability": "nonpayable",
      "type": "function"
    },
    {
      "inputs": [
        {
          "internalType": "string",
          "name": "productId",
          "type": "string"
        },
        {
          "internalType": "string",
          "name": "manufacturerLocation",
          "type": "string"
        }
      ],
      "name": "createProduct",
      "outputs": [],
      "stateMutability": "nonpayable",
      "type": "function"
    },
    {
      "inputs": [
        {
          "internalType": "string",
          "name": "productId",
          "type": "string"
        }
      ],
      "name": "getProduct",
      "outputs": [
        {
          "internalType": "string",
          "name": "",
          "type": "string"
        },
        {
          "internalType": "address",
          "name": "",
          "type": "address"
        },
        {
          "components": [
            {
              "internalType": "enum ProductTraceability.Role",
              "name": "role",
              "type": "uint8"
            },
            {
              "internalType": "address",
              "name": "actor",
              "type": "address"
            },
            {
              "internalType": "string",
              "name": "location",
              "type": "string"
            },
            {
              "internalType": "uint256",
              "name": "timestamp",
              "type": "uint256"
            }
          ],
          "internalType": "struct ProductTraceability.Hop[]",
          "name": "",
          "type": "tuple[]"
        }
      ],
      "stateMutability": "view",
      "type": "function"
    },
    {
      "inputs": [
        {
          "internalType": "address",
          "name": "",
          "type": "address"
        }
      ],
      "name": "isManufacturer",
      "outputs": [
        {
          "internalType": "bool",
          "name": "",
          "type": "bool"
        }
      ],
      "stateMutability": "view",
      "type": "function"
    },
    {
      "inputs": [
        {
          "internalType": "address",
          "name": "",
          "type": "address"
        }
      ],
      "name": "isRetailer",
      "outputs": [
        {
          "internalType": "bool",
          "name": "",
          "type": "bool"
        }
      ],
      "stateMutability": "view",
      "type": "function"
    },
    {
      "inputs": [],
      "name": "owner",
      "outputs": [
        {
          "internalType": "address",
          "name": "",
          "type": "address"
        }
      ],
      "stateMutability": "view",
      "type": "function"
    },
    {
      "inputs": [],
      "name": "renounceOwnership",
      "outputs": [],
      "stateMutability": "nonpayable",
      "type": "function"
    },
    {
      "inputs": [
        {
          "internalType": "address",
          "name": "account",
          "type": "address"
        },
        {
          "internalType": "bool",
          "name": "allowed",
          "type": "bool"
        }
      ],
      "name": "setManufacturer",
      "outputs": [],
      "stateMutability": "nonpayable",
      "type": "function"
    },
    {
      "inputs": [
        {
          "internalType": "address",
          "name": "account",
          "type": "address"
        },
        {
          "internalType": "bool",
          "name": "allowed",
          "type": "bool"
        }
      ],
      "name": "setRetailer",
      "outputs": [],
      "stateMutability": "nonpayable",
      "type": "function"
    },
    {
      "inputs": [
        {
          "internalType": "address",
          "name": "newOwner",
          "type": "address"
        }
      ],
      "name": "transferOwnership",
      "outputs": [],
      "stateMutability": "nonpayable",
      "type": "function"
    }
  ],
  "bytecode": "0x608060405234801561001057600080fd5b5033600160006101000a81548173ffffffffffffffffffffffffffffffffffffffff021916908373ffffffffffffffffffffffffffffffffffffffff1602179055503373ffffffffffffffffffffffffffffffffffffffff16600073ffffffffffffffffffffffffffffffffffffffff167f8be0079c531659141344cd1fd0a4f28419497f9722a3daafe3b4186f6b6457e060405160405180910390a361238e806100bc6000396000f3fe608060405234801561001057600080fd5b50600436106100a95760003560e01c806368111cce1161007157806368111cce14610162578063715018a61461019457806387592bce1461019e5780638da5cb5b146101ba578063958e6cc6146101d8578063f2fde38b146101f4576100a9565b8063171694bc146100ae57806317d4a491146100ca5780632dea85e5146100fa5780634f7c131b146101165780635da09b8814610132575b600080fd5b6100c860048036038101906100c3919061146b565b610210565b005b6100e460048036038101906100df9190611516565b610455565b6040516100f1919061155e565b60405180910390f35b610114600480360381019061010f91906115a5565b610475565b005b610130600480360381019061012b91906115e5565b610560565b005b61014c60048036038101906101479190611516565b610997565b604051610159919061155e565b60405180910390f35b61017c6004803603810190610177919061146b565b6109b7565b60405161018b93929190611913565b60405180910390f35b61019c610c7e565b005b6101b860048036038101906101b391906115e5565b610dcf565b005b6101c261112c565b6040516101cf9190611958565b60405180910390f35b6101f260048036038101906101ed91906115a5565b611152565b005b61020e60048036038101906102099190611516565b61123d565b005b60008083836040516102239291906119b2565b908152602001604051809103902090508060030160019054906101000a900460ff16610284576040517f08c379a000000000000000000000000000000000000000000000000000000000815260040161027b90611a17565b60405180910390fd5b6000600181111561029857610297611731565b5b8160030160009054906101000a900460ff1660018111156102bc576102bb611731565b5b146102fc576040517f08c379a00000000000000000000000000000000000000000000000000000000081526004016102f390611a83565b60405180910390fd5b8060010160009054906101000a900473ffffffffffffffffffffffffffffffffffffffff1673ffffffffffffffffffffffffffffffffffffffff163373ffffffffffffffffffffffffffffffffffffffff1614806103a75750600160009054906101000a900473ffffffffffffffffffffffffffffffffffffffff1673ffffffffffffffffffffffffffffffffffffffff163373ffffffffffffffffffffffffffffffffffffffff16145b6103e6576040517f08c379a00000000000000000000000000000000000000000000000000000000081526004016103dd90611aef565b60405180910390fd5b60018160030160006101000a81548160ff0219169083600181111561040e5761040d611731565b5b02179055507f79a19b0bed2b65b2c4e13ab71426dcceb9dc488acb37e7fd056fdccf26f19308838333426040516104489493929190611b4b565b60405180910390a1505050565b60026020528060005260406000206000915054906101000a900460ff1681565b600160009054906101000a900473ffffffffffffffffffffffffffffffffffffffff1673ffffffffffffffffffffffffffffffffffffffff163373ffffffffffffffffffffffffffffffffffffffff1614610505576040517f08c379a00000000000000000000000000000000000000000000000000000000081526004016104fc90611bd7565b60405180910390fd5b80600260008473ffffffffffffffffffffffffffffffffffffffff1673ffffffffffffffffffffffffffffffffffffffff16815260200190815260200160002060006101000a81548160ff0219169083151502179055505050565b60008085856040516105739291906119b2565b908152602001604051809103902090508060030160019054906101000a900460ff166105d4576040517f08c379a00000000000000000000000000000000000000000000000000000000081526004016105cb90611a17565b60405180910390fd5b600060018111156105e8576105e7611731565b5b8160030160009054906101000a900460ff16600181111561060c5761060b611731565b5b1461064c576040517f08c379a000000000000000000000000000000000000000000000000000000000815260040161064390611c43565b60405180910390fd5b600360003373ffffffffffffffffffffffffffffffffffffffff1673ffffffffffffffffffffffffffffffffffffffff16815260200190815260200160002060009054906101000a900460ff166106d8576040517f08c379a00000000000000000000000000000000000000000000000000000000081526004016106cf90611caf565b60405180910390fd5b600485856040516106ea9291906119b2565b908152602001604051809103902060003373ffffffffffffffffffffffffffffffffffffffff1673ffffffffffffffffffffffffffffffffffffffff16815260200190815260200160002060009054906101000a900460ff1615610783576040517f08c379a000000000000000000000000000000000000000000000000000000000815260040161077a90611d41565b60405180910390fd5b8060020160405180608001604052806001808111156107a5576107a4611731565b5b81526020013373ffffffffffffffffffffffffffffffffffffffff16815260200185858080601f016020809104026020016040519081016040528093929190818152602001838380828437600081840152601f19601f82011690508083019250505050505050815260200142815250908060018154018082558091505060019003906000526020600020906003020160009091909190915060008201518160000160006101000a81548160ff0219169083600181111561086857610867611731565b5b021790555060208201518160000160016101000a81548173ffffffffffffffffffffffffffffffffffffffff021916908373ffffffffffffffffffffffffffffffffffffffff16021790555060408201518160010190816108c99190611f9c565b506060820151816002015550506001600486866040516108ea9291906119b2565b908152602001604051809103902060003373ffffffffffffffffffffffffffffffffffffffff1673ffffffffffffffffffffffffffffffffffffffff16815260200190815260200160002060006101000a81548160ff0219169083151502179055507f20d21c13e309fcf22fdfc81434aa79244c89ab343ae7a4b4e17e1eee0767a2a38585600133878742604051610988979695949392919061207d565b60405180910390a15050505050565b60036020528060005260406000206000915054906101000a900460ff1681565b60606000606060008086866040516109d09291906119b2565b908152602001604051809103902090508060030160019054906101000a900460ff16610a31576040517f08c379a0000000000000000000000000000000000000000000000000000000008152600401610a2890611a17565b60405180910390fd5b806000018160010160009054906101000a900473ffffffffffffffffffffffffffffffffffffffff1682600201828054610a6a90611dbf565b80601f0160208091040260200160405190810160405280929190818152602001828054610a9690611dbf565b8015610ae35780601f10610ab857610100808354040283529160200191610ae3565b820191906000526020600020905b815481529060010190602001808311610ac657829003601f168201915b5050505050925080805480602002602001604051908101604052809291908181526020016000905b82821015610c6a57838290600052602060002090600302016040518060800160405290816000820160009054906101000a900460ff166001811115610b5357610b52611731565b5b6001811115610b6557610b64611731565b5b81526020016000820160019054906101000a900473ffffffffffffffffffffffffffffffffffffffff1673ffffffffffffffffffffffffffffffffffffffff1673ffffffffffffffffffffffffffffffffffffffff168152602001600182018054610bcf90611dbf565b80601f0160208091040260200160405190810160405280929190818152602001828054610bfb90611dbf565b8015610c485780601f10610c1d57610100808354040283529160200191610c48565b820191906000526020600020905b815481529060010190602001808311610c2b57829003601f168201915b5050505050815260200160028201548152505081526020019060010190610b0b565b505050509050935093509350509250925092565b600160009054906101000a900473ffffffffffffffffffffffffffffffffffffffff1673ffffffffffffffffffffffffffffffffffffffff163373ffffffffffffffffffffffffffffffffffffffff1614610d0e576040517f08c379a0000000000000000000000000000000000000000000000000000000008152600401610d0590611bd7565b60405180910390fd5b600073ffffffffffffffffffffffffffffffffffffffff16600160009054906101000a900473ffffffffffffffffffffffffffffffffffffffff1673ffffffffffffffffffffffffffffffffffffffff167f8be0079c531659141344cd1fd0a4f28419497f9722a3daafe3b4186f6b6457e060405160405180910390a36000600160006101000a81548173ffffffffffffffffffffffffffffffffffffffff021916908373ffffffffffffffffffffffffffffffffffffffff160217905550565b60008484604051610de19291906119b2565b908152602001604051809103902060030160019054906101000a900460ff1615610e40576040517f08c379a0000000000000000000000000000000000000000000000000000000008152600401610e379061212e565b60405180910390fd5b600260003373ffffffffffffffffffffffffffffffffffffffff1673ffffffffffffffffffffffffffffffffffffffff16815260200190815260200160002060009054906101000a900460ff16610ecc576040517f08c379a0000000000000000000000000000000000000000000000000000000008152600401610ec39061219a565b60405180910390fd5b6000808585604051610edf9291906119b2565b908152602001604051809103902090508484826000019182610f029291906121c5565b50338160010160006101000a81548173ffffffffffffffffffffffffffffffffffffffff021916908373ffffffffffffffffffffffffffffffffffffffff16021790555060008160030160006101000a81548160ff02191690836001811115610f6e57610f6d611731565b5b021790555060018160030160016101000a81548160ff02191690831515021790555080600201604051806080016040528060006001811115610fb357610fb2611731565b5b81526020013373ffffffffffffffffffffffffffffffffffffffff16815260200185858080601f016020809104026020016040519081016040528093929190818152602001838380828437600081840152601f19601f82011690508083019250505050505050815260200142815250908060018154018082558091505060019003906000526020600020906003020160009091909190915060008201518160000160006101000a81548160ff0219169083600181111561107657611075611731565b5b021790555060208201518160000160016101000a81548173ffffffffffffffffffffffffffffffffffffffff021916908373ffffffffffffffffffffffffffffffffffffffff16021790555060408201518160010190816110d79190611f9c565b506060820151816002015550507f0f6e8309b69fa647cf2853e8040c58ade3a53b2b43d6f04bd5358b05ee622a4c85853386864260405161111d96959493929190612295565b60405180910390a15050505050565b600160009054906101000a900473ffffffffffffffffffffffffffffffffffffffff1681565b600160009054906101000a900473ffffffffffffffffffffffffffffffffffffffff1673ffffffffffffffffffffffffffffffffffffffff163373ffffffffffffffffffffffffffffffffffffffff16146111e2576040517f08c379a00000000000000000000000000000000000000000000000000000000081526004016111d990611bd7565b60405180910390fd5b80600360008473ffffffffffffffffffffffffffffffffffffffff1673ffffffffffffffffffffffffffffffffffffffff16815260200190815260200160002060006101000a81548160ff0219169083151502179055505050565b600160009054906101000a900473ffffffffffffffffffffffffffffffffffffffff1673ffffffffffffffffffffffffffffffffffffffff163373ffffffffffffffffffffffffffffffffffffffff16146112cd576040517f08c379a00000000000000000000000000000000000000000000000000000000081526004016112c490611bd7565b60405180910390fd5b600073ffffffffffffffffffffffffffffffffffffffff168173ffffffffffffffffffffffffffffffffffffffff160361133c576040517f08c379a000000000000000000000000000000000000000000000000000000000815260040161133390612338565b60405180910390fd5b8073ffffffffffffffffffffffffffffffffffffffff16600160009054906101000a900473ffffffffffffffffffffffffffffffffffffffff1673ffffffffffffffffffffffffffffffffffffffff167f8be0079c531659141344cd1fd0a4f28419497f9722a3daafe3b4186f6b6457e060405160405180910390a380600160006101000a81548173ffffffffffffffffffffffffffffffffffffffff021916908373ffffffffffffffffffffffffffffffffffffffff16021790555050565b600080fd5b600080fd5b600080fd5b600080fd5b600080fd5b60008083601f84011261142b5761142a611406565b5b8235905067ffffffffffffffff8111156114485761144761140b565b5b60208301915083600182028301111561146457611463611410565b5b9250929050565b60008060208385031215611482576114816113fc565b5b600083013567ffffffffffffffff8111156114a05761149f611401565b5b6114ac85828601611415565b92509250509250929050565b600073ffffffffffffffffffffffffffffffffffffffff82169050919050565b60006114e3826114b8565b9050919050565b6114f3816114d8565b81146114fe57600080fd5b50565b600081359050611510816114ea565b92915050565b60006020828403121561152c5761152b6113fc565b5b600061153a84828501611501565b91505092915050565b60008115159050919050565b61155881611543565b82525050565b6000602082019050611573600083018461154f565b92915050565b61158281611543565b811461158d57600080fd5b50565b60008135905061159f81611579565b92915050565b600080604083850312156115bc576115bb6113fc565b5b60006115ca85828601611501565b92505060206115db85828601611590565b9150509250929050565b600080600080604085870312156115ff576115fe6113fc565b5b600085013567ffffffffffffffff81111561161d5761161c611401565b5b61162987828801611415565b9450945050602085013567ffffffffffffffff81111561164c5761164b611401565b5b61165887828801611415565b925092505092959194509250565b600081519050919050565b600082825260208201905092915050565b60005b838110156116a0578082015181840152602081019050611685565b60008484015250505050565b6000601f19601f8301169050919050565b60006116c882611666565b6116d28185611671565b93506116e2818560208601611682565b6116eb816116ac565b840191505092915050565b6116ff816114d8565b82525050565b600081519050919050565b600082825260208201905092915050565b6000819050602082019050919050565b7f4e487b7100000000000000000000000000000000000000000000000000000000600052602160045260246000fd5b6002811061177157611770611731565b5b50565b600081905061178282611760565b919050565b600061179282611774565b9050919050565b6117a281611787565b82525050565b6117b1816114d8565b82525050565b600082825260208201905092915050565b60006117d382611666565b6117dd81856117b7565b93506117ed818560208601611682565b6117f6816116ac565b840191505092915050565b6000819050919050565b61181481611801565b82525050565b60006080830160008301516118326000860182611799565b50602083015161184560208601826117a8565b506040830151848203604086015261185d82826117c8565b9150506060830151611872606086018261180b565b508091505092915050565b6000611889838361181a565b905092915050565b6000602082019050919050565b60006118a982611705565b6118b38185611710565b9350836020820285016118c585611721565b8060005b8581101561190157848403895281516118e2858261187d565b94506118ed83611891565b925060208a019950506001810190506118c9565b50829750879550505050505092915050565b6000606082019050818103600083015261192d81866116bd565b905061193c60208301856116f6565b818103604083015261194e818461189e565b9050949350505050565b600060208201905061196d60008301846116f6565b92915050565b600081905092915050565b82818337600083830152505050565b60006119998385611973565b93506119a683858461197e565b82840190509392505050565b60006119bf82848661198d565b91508190509392505050565b7f50726f6475637420646f6573206e6f7420657869737400000000000000000000600082015250565b6000611a01601683611671565b9150611a0c826119cb565b602082019050919050565b60006020820190508181036000830152611a30816119f4565b9050919050565b7f50726f6475637420616c726561647920636f6d706c6574656400000000000000600082015250565b6000611a6d601983611671565b9150611a7882611a37565b602082019050919050565b60006020820190508181036000830152611a9c81611a60565b9050919050565b7f4e6f7420617574686f72697a656420746f20636f6d706c657465000000000000600082015250565b6000611ad9601a83611671565b9150611ae482611aa3565b602082019050919050565b60006020820190508181036000830152611b0881611acc565b9050919050565b6000611b1b8385611671565b9350611b2883858461197e565b611b31836116ac565b840190509392505050565b611b4581611801565b82525050565b60006060820190508181036000830152611b66818688611b0f565b9050611b7560208301856116f6565b611b826040830184611b3c565b95945050505050565b7f4e6f74206f776e65720000000000000000000000000000000000000000000000600082015250565b6000611bc1600983611671565b9150611bcc82611b8b565b602082019050919050565b60006020820190508181036000830152611bf081611bb4565b9050919050565b7f50726f64756374206e6f74206163746976650000000000000000000000000000600082015250565b6000611c2d601283611671565b9150611c3882611bf7565b602082019050919050565b60006020820190508181036000830152611c5c81611c20565b9050919050565b7f4e6f7420616c6c6f7765642072657461696c6572000000000000000000000000600082015250565b6000611c99601483611671565b9150611ca482611c63565b602082019050919050565b60006020820190508181036000830152611cc881611c8c565b9050919050565b7f52657461696c657220616c726561647920616464656420666f722070726f647560008201527f6374000000000000000000000000000000000000000000000000000000000000602082015250565b6000611d2b602283611671565b9150611d3682611ccf565b604082019050919050565b60006020820190508181036000830152611d5a81611d1e565b9050919050565b7f4e487b7100000000000000000000000000000000000000000000000000000000600052604160045260246000fd5b7f4e487b7100000000000000000000000000000000000000000000000000000000600052602260045260246000fd5b60006002820490506001821680611dd757607f821691505b602082108103611dea57611de9611d90565b5b50919050565b60008190508160005260206000209050919050565b60006020601f8301049050919050565b600082821b905092915050565b600060088302611e527fffffffffffffffffffffffffffffffffffffffffffffffffffffffffffffffff82611e15565b611e5c8683611e15565b95508019841693508086168417925050509392505050565b6000819050919050565b6000611e99611e94611e8f84611801565b611e74565b611801565b9050919050565b6000819050919050565b611eb383611e7e565b611ec7611ebf82611ea0565b848454611e22565b825550505050565b600090565b611edc611ecf565b611ee7818484611eaa565b505050565b5b81811015611f0b57611f00600082611ed4565b600181019050611eed565b5050565b601f821115611f5057611f2181611df0565b611f2a84611e05565b81016020851015611f39578190505b611f4d611f4585611e05565b830182611eec565b50505b505050565b600082821c905092915050565b6000611f7360001984600802611f55565b1980831691505092915050565b6000611f8c8383611f62565b9150826002028217905092915050565b611fa582611666565b67ffffffffffffffff811115611fbe57611fbd611d61565b5b611fc88254611dbf565b611fd3828285611f0f565b600060209050601f8311600181146120065760008415611ff4578287015190505b611ffe8582611f80565b865550612066565b601f19841661201486611df0565b60005b8281101561203c57848901518255600182019150602085019450602081019050612017565b868310156120595784890151612055601f891682611f62565b8355505b6001600288020188555050505b505050505050565b61207781611787565b82525050565b600060a082019050818103600083015261209881898b611b0f565b90506120a7602083018861206e565b6120b460408301876116f6565b81810360608301526120c7818587611b0f565b90506120d66080830184611b3c565b98975050505050505050565b7f50726f6475637420616c72656164792065786973747300000000000000000000600082015250565b6000612118601683611671565b9150612123826120e2565b602082019050919050565b600060208201905081810360008301526121478161210b565b9050919050565b7f4e6f7420616c6c6f776564206d616e7566616374757265720000000000000000600082015250565b6000612184601883611671565b915061218f8261214e565b602082019050919050565b600060208201905081810360008301526121b381612177565b9050919050565b600082905092915050565b6121cf83836121ba565b67ffffffffffffffff8111156121e8576121e7611d61565b5b6121f28254611dbf565b6121fd828285611f0f565b6000601f83116001811461222c576000841561221a578287013590505b6122248582611f80565b86555061228c565b601f19841661223a86611df0565b60005b828110156122625784890135825560018201915060208501945060208101905061223d565b8683101561227f578489013561227b601f891682611f62565b8355505b6001600288020188555050505b50505050505050565b600060808201905081810360008301526122b081888a611b0f565b90506122bf60208301876116f6565b81810360408301526122d2818587611b0f565b90506122e16060830184611b3c565b979650505050505050565b7f4e6577206f776e6572206973207a65726f206164647265737300000000000000600082015250565b6000612322601983611671565b915061232d826122ec565b602082019050919050565b6000602082019050818103600083015261235181612315565b905091905056fea2646970667358221220bb239df75dc95dae5978d31fa370cad062143202cc4681041afce657bc3909de64736f6c63430008140033",
  "linkReferences": {},
  "deployedLinkReferences": {}
}